:020000040800F2
:1000000000040020790200087B0200087B0200083F
:100010007B0200087B0200087B0200087B020008CC
:100020007B0200087B0200087B0200080135000803
:100030007B0200087B0200087B0200087B020008AC
:100040007B0200087B0200087B0200087B0200089C
:100050007B0200087B0200087B0200087B0200088C
:100060007B0200087B0200087B0200087B0200087C
:100070007B0200087B0200087B0200087B0200086C
:100080007B0200087B0200087B0200087B0200085C
:100090007B0200087B0200087B0200087B0200084C
:1000A0007B0200087B0200087B0200087B0200083C
:1000B000E11400087B0200087B0200087B020008B4
:1000C0007B0200087B0200087B0200087B0200081C
:1000D0007B0200087B020008611400087B02000814
:1000E0007B0200087B0200087B0200087B020008FC
:1000F0007B0200087B0200087B0200087B020008EC
:100100007B0200087B0200087B0200087B020008DB
:100110007B0200087B0200087B0200087B020008CB
:100120007B0200087B0200087B0200087B020008BB
:100130007B0200087B0200087B0200087B020008AB
:100140007B0200087B0200087B0200087B0200089B
:100150007B0200087B0200087B0200087B0200088B
:100160007B0200087B0200087B0200087B0200087B
:100170007B0200087B0200087B0200087B0200086B
:100180007B0200087B0200087B0200087B0200085B
:100190007B0200087B0200087B0200087B0200084B
:1001A00072B6274880F30888264880F309882648D5
:1001B0004EF60851CEF200010860022080F3148848
:1001C000BFF36F8F00F08CFA02F0B2F84FF05530A9
:1001D0001E491B4A91423CBF41F8040BFAE71C49F7
:1001E000184A91423CBF41F8040BFAE719491A4AF0
:1001F0001A4B9A423EBF51F8040B42F8040BF8E741
:1002000000201749174A91423CBF41F8040BFAE716
:1002100000F07EFA00F06CFA134C144DAC4203DA95
:1002200054F8041B8847F9E707F05AFB104C114DAE
:10023000AC4203DA54F8041B8847F9E700F060BACF
:10024000000400200008002000000008000000203A
:1002500000040020C89400080008002000080020C6
:1002600000080020C00F0020A0010008A001000825
:10027000A0010008A001000892E700F000F8FEE7E6
:100280002DE9F04FC1F80CD0C3689D46BDE8F08F52
:10029000002383F311882846A047002002F040FE87
:1002A000FEE702F0ADFC00DFFEE7000053B94AB9FB
:1002B000002908BF00281CBF4FF0FF314FF0FF306E
:1002C00000F06CB9ADF1080C6DE904CE00F006F851
:1002D000DDF804E0DDE9022304B070472DE9F047C2
:1002E000089E0D4604468E46002B40F082808A42CE
:1002F000174646D9B2FA82F24AB1C2F1200105FA94
:1003000002F320FA01F1974041EA030E94404FEACC
:100310001748230CBEFBF8FCB9B208FB1CEE43EAFD
:100320000E430CFB01F098420AD9FB180CF1FF3583
:1003300080F01681984240F21381ACF1020C3B44EC
:100340001B1AA4B2B3FBF8F008FB103344EA0344D1
:1003500000FB01F1A14209D93C1900F1FF3380F003
:100360000181A14240F2FE8002383C44641A40EA16
:100370000C4000211EB1D4400023C6E90043BDE873
:10038000F08702B9FFDEB2FA82F2002A4FD1CB1B0E
:100390004FEA174E1FFA87F80121B3FBFEFC250C2C
:1003A0000EFB1C3345EA034508FB0CF3AB4207D9AF
:1003B0007D190CF1FF3002D2AB4200F2E780844697
:1003C000ED1AA3B2B5FBFEF00EFB105543EA05444F
:1003D00008FB00F8A04507D93C1900F1FF3302D211
:1003E000A04500F2D7801846A4EB080440EA0C4070
:1003F000C0E78B4208D9002E00F0AF800021C6E98B
:1004000000050846BDE8F087B3FA83F100294BD117
:10041000AB4202D3824200F2B780841A65EB030339
:1004200001209E46002EAAD0C6E9004EA7E7C2F1E1
:10043000200C01FA02F3974020FA0CF04FEA174E15
:1004400021FA0CFC1843BCFBFEF1050C0EFB11CC91
:100450001FFA87F845EA0C4501FB08F3AB4204FAA2
:1004600002F409D97D1901F1FF3C80F08B80AB4289
:1004700040F2888002393D44EB1A85B2B3FBFEF0AE
:100480000EFB103345EA034500FB08F3AB4207D9E6
:100490007D1900F1FF3C71D2AB426FD902383D4467
:1004A000EB1A40EA014178E7C1F1200C8B4022FAB7
:1004B0000CF71F4320FA0CF405FA01F34FEA174E2C
:1004C00025FA0CF51C43230CB5FBFEF91FFA87F83F
:1004D0000EFB195543EA054509FB08FAAA4502FA3D
:1004E00001F200FA01F308D97D1909F1FF3047D272
:1004F000AA4545D9A9F102093D44A5EB0A05A4B2D4
:10050000B5FBFEF00EFB105544EA054400FB08F86D
:10051000A04507D93C1900F1FF352DD2A0452BD9B4
:1005200002383C4440EA0940A4EB0804A0FB0289DD
:100530004C45C6464D4619D316D05EB1B3EB0E02FC
:1005400064EB050404FA0CFCCA404CEA0202CC40FD
:10055000C6E900240021BDE8F087314630460EE7A9
:10056000AC46EDE6184601E74345E6D2B8EB020E8D
:1005700069EB07050138E0E72846D3E760468FE7D7
:100580008146BAE7614677E708464BE7ACF1020CD3
:100590003D4415E702383C4426E700BF704700BFE2
:1005A000844641EA000313F003036DD1403A41D37E
:1005B00051F8043B40F8043B51F8043B40F8043B3D
:1005C00051F8043B40F8043B51F8043B40F8043B2D
:1005D00051F8043B40F8043B51F8043B40F8043B1D
:1005E00051F8043B40F8043B51F8043B40F8043B0D
:1005F00051F8043B40F8043B51F8043B40F8043BFD
:1006000051F8043B40F8043B51F8043B40F8043BEC
:1006100051F8043B40F8043B51F8043B40F8043BDC
:1006200051F8043B40F8043B51F8043B40F8043BCC
:10063000403ABDD2303211D351F8043B40F8043B6C
:1006400051F8043B40F8043B51F8043B40F8043BAC
:1006500051F8043B40F8043B103AEDD20C3205D37C
:1006600051F8043B40F8043B043AF9D2043208D074
:10067000D2071CBF11F8013B00F8013B01D30B88E6
:1006800003806046704700BF082A13D38B078DD0C4
:1006900010F003038AD0C3F10403D21ADB071CBF96
:1006A00011F8013B00F8013B80D331F8023B20F800
:1006B000023B7BE7043AD9D3013A11F8013B00F839
:1006C000013BF9D20B7803704B7843708B788370C1
:1006D00060467047000000000000000000000000BD
:1006E000704700BF00000000000000000000000094
:1006F000704700BF00000000000000000000000084
:10070000FEE700BF00000000000000000000000045
:1007100084B0164B0393039B1B680293039B5B6897
:10072000019309E0029B1A68019B1A60019B043344
:100730000193029B04330293039B9B68019A9A42A4
:10074000F0D305E0019B00221A60019B0433019362
:10075000039BDB68019A9A42F4D3039B1033039303
:10076000039B034A9342D6D304B07047A479000890
:10077000247A0008000000000000000000000000D3
:10078000704700BF000000000000000000000000F3
:1007900008B5FFF7F5FF00F04BFF01F0D1FA00F0CC
:1007A0002FFC00F065FD01F0CBFD00F029F808BD3D
:1007B0004FF080435B6A1846704700BF000000009E
:1007C00082B001904FF08042019B53634FF0804311
:1007D00000221A614FF080430222DA6002B07047B3
:1007E0004FF080430022DA60704700BF0000000035
:1007F00082B001904FF08042019B536302B070477A
:1008000008B501F0CDFA08BD0000000000000000AE
:1008100000B583B001900198FFF7D2FF03B05DF8F7
:1008200004FB00BF0000000000000000000000000A
:1008300008B5FFF7D5FF08BD00000000000000006C
:1008400000B583B001900198FFF7D2FF03B05DF8C7
:1008500004FB00BF000000000000000000000000DA
:1008600008B5FFF7A5FF0346184608BD00000000C5
:1008700082B00190019B019A1A60019B019A5A6013
:1008800002B07047000000000000000000000000FF
:1008900082B020230193019B83F3118802B070473B
:1008A00082B000230193019B83F3118802B070474B
:1008B00000B583B001900198FFF7DAFF03B05DF84F
:1008C00004FB00BF0000000000000000000000006A
:1008D00008B5FFF7DDFF08BD0000000000000000C4
:1008E00008B5FFF7DDFF08BD0000000000000000B4
:1008F00000B583B001900198FFF7DAFF03B05DF80F
:1009000004FB00BF00000000000000000000000029
:1009100000B583B0019000910099019802F060FB4E
:100920000346184603B05DF804FB00BF000000005A
:1009300000B583B0019000910099019802F070FB1E
:1009400003B05DF804FB00BF0000000000000000E1
:1009500000B587B0039002910192039B9B68019AB6
:100960009A4202D9039B9B680193039B1A69039BDC
:100970009B69D31A0593019A059B9A420DD2039B5A
:100980009B69019A19460298FFF70AFE039B9A6930
:10099000019B1A44039B9A612BE0019A059B9A42A2
:1009A0001CD9039B9B69059A19460298FFF7F8FD2D
:1009B000029A059B13440293019A059BD31A049350
:1009C000039BDB68049A19460298FFF7E9FD039B35
:1009D000DA68049B1A44039B9A610AE0039B9B69B3
:1009E000019A19460298FFF7DBFD039BDA68039B27
:1009F0009A61039B9A68019BD21A039B9A60019BA0
:100A0000184607B05DF804FB00000000000000007D
:100A100000B587B0039002910192039B9B68019AF5
:100A20009A4202D9039B9B680193039B1A69039B1B
:100A30005B69D31A0593019A059B9A420DD2039BD9
:100A40005B69019A02991846FFF7AAFD039B5A6950
:100A5000019B1A44039B5A612BE0019A059B9A4221
:100A60001CD9039B5B69059A02991846FFF798FD0C
:100A7000029A059B13440293019A059BD31A04938F
:100A8000039BDB68049A02991846FFF789FD039BD4
:100A9000DA68049B1A44039B5A610AE0039B5B6972
:100AA000019A02991846FFF77BFD039BDA68039BC6
:100AB0005A61039B9A68019BD21A039B9A60019B1F
:100AC000184607B05DF804FB0000000000000000BD
:100AD00000B585B00390029101920093039B1846E4
:100AE000FFF706FF039B00229A60039B029ADA60DD
:100AF000039B029A9A61039B029A5A61029A019B94
:100B00001A44039B1A61039B009ADA61039B069ABD
:100B10001A6205B05DF804FB000000000000000050
:100B200000B583B001900B468DF80330019B5A69E4
:100B3000019B9B699A4205D1019B9B68002B01D0C8
:100B4000012300E0002303F00103DBB283F0010383
:100B5000DBB2002B1DD0019B9B685A1C019B9A6045
:100B6000019B5B69591C019A51619DF803201A7021
:100B7000019B5A69019B1B699A4203D3019BDA6866
:100B8000019B5A61019B00211846FFF7D1FE00230B
:100B900001E04FF0FF33184603B05DF804FB00BFDF
:100BA00000B585B001900091FFF792FE0CE0019B2B
:100BB00000991846FFF7ACFE0290029B002B03DA67
:100BC000FFF78EFE029B26E0019B9B68002BEED078
:100BD000019B9B685A1E019B9A60019B9B69591C53
:100BE000019A91611B788DF80F30019B9A69019BE6
:100BF0001B699A4203D3019BDA68019B9A61019BAE
:100C0000DB69002B03D0019BDB6901989847FFF754
:100C100067FE9DF80F30184605B05DF804FB00BF75
:100C200000B589B00390029101920093039BDB69A8
:100C30000793019B0693FFF74BFE24E0019A02996C
:100C40000398FFF785FE0590059B002B09D1039BB8
:100C500000991846FFF75CFE0490049B002B15D109
:100C600011E0079B002B02D0079B03989847FFF7E2
:100C700037FE019A059BD31A0193029A059B1344F0
:100C80000293FFF725FE019B002BD7D1FFF728FE2B
:100C9000069A019BD31A184609B05DF804FB00BF01
:100CA00000B585B00390029101920093039B184612
:100CB000FFF71EFE039B019A9A60039B029ADA607B
:100CC000039B029A9A61039B029A5A61029A019BC2
:100CD0001A44039B1A61039B009ADA61039B069AEC
:100CE0001A6205B05DF804FB00000000000000007F
:100CF00000B587B003900B4601928DF80B30FFF7DB
:100D0000E7FD0CE0039B01991846FFF701FE0590F3
:100D1000059B002B03DAFFF7E3FD059B25E0039B12
:100D20009B68002BEED0039B9B685A1E039B9A6026
:100D3000039B5B69591C039A51619DF80B201A7043
:100D4000039B5A69039B1B699A4203D3039BDA688E
:100D5000039B5A61039BDB69002B03D0039BDB6978
:100D600003989847FFF7BCFD0023184607B05DF8CD
:100D700004FB00BF000000000000000000000000B5
:100D800000B585B00190019B5A69019B9B699A420D
:100D900005D1019B9B68002B01D0012300E00023BB
:100DA00003F00103DBB283F00103DBB2002B1ED0A2
:100DB000019B9B685A1C019B9A60019B9B69591C73
:100DC000019A91611B788DF80F30019B9A69019B04
:100DD0001B699A4203D3019BDA68019B9A61019BCC
:100DE00000211846FFF7A4FD9DF80F3001E04FF0F9
:100DF000FF33184605B05DF804FB00BF000000009B
:100E000000B589B00390029101920093039BDB69C6
:100E10000793019B0693FFF75BFD24E0019A02997B
:100E20000398FFF7F5FD0590059B002B09D1039B67
:100E300000991846FFF76CFD0490049B002B15D118
:100E400011E0079B002B02D0079B03989847FFF700
:100E500047FD019A059BD31A0193029A059B1344FF
:100E60000293FFF735FD019B002BD7D1FFF738FD2B
:100E7000069A019BD31A184609B05DF804FB00BF1F
:100E800000B583B00190019802F09AF803B05DF8C4
:100E900004FB00BF00000000000000000000000094
:100EA000F0B585B00190019B1B689B6902AA1146B1
:100EB0000198984703468DF80F309DF80F30012BAD
:100EC00002D09DF80F304EE0029B18464FF0000113
:100ED00002460B464FF000044FF000059D0045EA26
:100EE0009275940022462B46121841EB03034FF0F3
:100EF00000044FF00005DD0045EA5275D40022469B
:100F00002B46121A63EB01034FF000044FF000056B
:100F10001D0145EA1275140122462B46121841EBB9
:100F200003034FF000004FF00001190141EA127174
:100F3000100102460B461046194640F2E7324FF0C8
:100F40000003861841EB03074FF47A724FF0000359
:100F500030463946FFF7AAF902460B4613461846B3
:100F6000FFF78EFF9FE7184605B0F0BD00000000B8
:100F700000B585B001900091019B1B685B680198EA
:100F800098470290029BDB68002B07D0029BDA682F
:100F9000009BDB0013441B68039305E0029B1A6966
:100FA000009B02FB03F30393039B184605B05DF817
:100FB00004FB00BF00000000000000000000000073
:100FC00082B020230193019B83F3118802B0704704
:100FD00082B000230193019B83F3118802B0704714
:100FE00008B5FFF7EDFF08BD00000000000000009D
:100FF00008B5FFF7EDFF08BD00000000000000008D
:1010000008B500F0D5FC08BD00000000000000009D
:1010100082B00190019B034A1A60019B01221A7160
:1010200002B07047247A00080000000000000000B1
:1010300000B583B001900091FFF7D2FF019B009AA9
:101040009A60019800F0C4FC019B02221A71FFF71C
:10105000CFFF03B05DF804FB0000000000000000BB
:1010600082B020230193019B83F3118802B0704763
:1010700082B000230193019B83F3118802B0704773
:1010800082B00190019B019A1A6002B0704700BFC4
:1010900008B5FFF7E5FF08BD0000000000000000F4
:1010A00008B5FFF7E5FF08BD0000000000000000E4
:1010B00000B583B001900198FFF7E2FF03B05DF83F
:1010C00004FB00BF00000000000000000000000062
:1010D00000B583B0019000910099019802F078F872
:1010E00003B05DF804FB00BF00000000000000003A
:1010F00000B585B0039002910192039B03F130008B
:101100004FF0FF33019A0299FFF77AFE0346184623
:1011100005B05DF804FB00BF000000000000000007
:1011200000B585B0039002910192039B03F10C007E
:101130004FF0FF33019A0299FFF772FD03461846FC
:1011400005B05DF804FB00BF0000000000000000D7
:1011500000B583B001900B468DF80330019B30330E
:101160009DF803104FF0FF321846FFF7C1FD03460C
:10117000184603B05DF804FB00000000000000000A
:1011800000B583B00190019B0C334FF0FF3118463E
:10119000FFF706FD0346184603B05DF804FB00BFE9
:1011A00000B585B003900B4601928DF80B30039B80
:1011B00030339DF80B10019A1846FFF799FD03464E
:1011C000184605B05DF804FB0000000000000000B8
:1011D00000B583B001900091019B0C330099184633
:1011E000FFF7DEFC0346184603B05DF804FB00BFC2
:1011F00000B585B00390029101920093039B03F127
:101200003000009B019A0299FFF7FAFD0346184649
:1012100005B05DF804FB00BF000000000000000006
:1012200000B585B00390029101920093039B03F1F6
:101230000C00009B019A0299FFF7F2FC0346184646
:1012400005B05DF804FB00BF0000000000000000D6
:1012500086B0039002910192039B0593029B002BA1
:1012600001D0029B012B0023184606B0704700BF37
:1012700008B500F0CDFE08BD000000000000000031
:1012800000B583B00190019B064A1A60019B0433AC
:101290001846FFF70DFF019B01221A7203B05DF89B
:1012A00004FB00BF447A00080000000000000000BA
:1012B00000B583B001900091FFF7EAFE0099019814
:1012C00000F0D6FE019B02221A72FFF7E9FE03B07E
:1012D0005DF804FB000000000000000000000000BA
:1012E00000B583B001900B468DF80330019B5B691C
:1012F000002B05D1019B043304211846FFF7E8FEBB
:10130000019B0C339DF8032011461846FFF708FC9B
:101310000346002B06DA019B04334FF48061184624
:10132000FFF7D6FE03B05DF804FB00BF000000002D
:1013300082B001900091009BDBB2114A1B01D9B22F
:10134000019B134403F540730A461A70019B03F096
:101350001F020B49019B5B09012000FA02F2603376
:1013600041F82320019B03F01F020549019B5B0903
:10137000012000FA02F241F8232002B0704700BFBA
:1013800000E100E00000000000000000000000009C
:10139000704700BF000000000000000000000000D7
:1013A000704700BF000000000000000000000000C7
:1013B000704700BF000000000000000000000000B7
:1013C000704700BF000000000000000000000000A7
:1013D000704700BF00000000000000000000000097
:1013E000704700BF00000000000000000000000087
:1013F000704700BF00000000000000000000000077
:10140000704700BF00000000000000000000000066
:10141000704700BF00000000000000000000000056
:10142000704700BF00000000000000000000000046
:10143000704700BF00000000000000000000000036
:10144000704700BF00000000000000000000000026
:1014500008B50C212620FFF76BFF08BD0000000037
:1014600008B5034800F034FE02F08AF808BD00BF5A
:101470001008002000000000000000000000000034
:10148000704700BF000000000000000000000000E6
:10149000704700BF000000000000000000000000D6
:1014A000704700BF000000000000000000000000C6
:1014B000704700BF000000000000000000000000B6
:1014C000704700BF000000000000000000000000A6
:1014D00008B507211C20FFF72BFF08BD0000000006
:1014E00008B500F09DFC02F04BF808BD00000000BC
:1014F000704700BF00000000000000000000000076
:10150000704700BF00000000000000000000000065
:10151000704700BF00000000000000000000000055
:10152000704700BF00000000000000000000000045
:10153000704700BF00000000000000000000000035
:10154000704700BF00000000000000000000000025
:1015500008B5FFF71DFFFFF723FFFFF729FFFFF790
:101560002FFFFFF735FFFFF73BFFFFF741FFFFF7C7
:1015700047FFFFF74DFFFFF753FFFFF759FFFFF757
:101580009FFFFFF7A5FFFFF7B3FFFFF7B9FFFFF7D7
:10159000BFFFFFF7C5FFFFF7CBFFFFF7D1FFFFF757
:1015A0004FFFFFF755FFFFF76BFFFFF771FFFFF7E7
:1015B00077FFFFF77DFF08BD00000000000000007E
:1015C000194BD3F8903003F44073B3F5007F08D083
:1015D000154B4FF48032C3F89020134B0022C3F810
:1015E0009020114BD3F890300F4A43F01903C2F802
:1015F00090300D4BD3F8903003F00203002BF8D05D
:10160000094B1B68084A43F004031360064B1B6830
:1016100003F00203002BF9D0034B034AD3F89030B8
:10162000C2F89030704700BF001002400000000078
:1016300008B5354B9B6A344B4FF0FF329A62324B00
:101640009B6A314B00229A622F4B9B6A2E4BDB6ABE
:101650002D4A63F0FF03D3622B4BDB6A2A4ADBB2CD
:10166000D362294BDB6A284B1B6B274B4FF0FF32B1
:101670001A63254B1B6B244B00221A63224B1B6BF6
:10168000214B9B6B204A63F0805393631E4B9B6BF3
:101690001D4A03F0805393631B4B9B6B1A4BDB6B10
:1016A000194B4FF0FF32DA63174BDB6B164B0022FE
:1016B000DA63154BDB6B144B1B6C134B4FF0FF3293
:1016C0001A64114B1B6C104B00221A640E4B1B6CDE
:1016D0000D4B9B6D0C4A43F0805393650A4B9B6FF7
:1016E000094A43F080539367074B9B6FFFF768FFEE
:1016F000FFF72EFF054B00225A60044B5B68034A3C
:1017000043F40073536008BD0010024000700040B5
:1017100082B0614B4FF080529A655F4B01221A6094
:101720005D4B1B6803F00203002BF9D05A4B0022DB
:101730009A60594B9B6803F00C03002BF9D1574B6F
:101740004FF400721A60554B5B6903F48063002B01
:10175000F9D1514BD3F894304F4A43F00103C2F80A
:1017600094304D4BD3F8943003F00203002BF8D0A3
:101770004A4B1B68494A43F480731360464BD3F8C5
:101780009030454A43F01903C2F89030424BD3F8E9
:10179000903003F00203002BF8D0414B4FF4E0628D
:1017A0001A603D4B1B683C4A43F0600313603A4BA0
:1017B0001B68394A43F008031360374B1B6803F07A
:1017C0000203002BF9D0344B9B6803F00C03002B71
:1017D000F9D1314B1B68304A43F0040313602E4BA0
:1017E000D3F894302C4A43F4C063C2F894302A4BA7
:1017F0002C4ADA60284B1B68274A43F08073136039
:10180000254B1B6803F00073002BF9D0224B264AAE
:101810001A61214B1B68204A43F0806313601E4B02
:101820001B6803F00063002BF9D01B4B00229A6069
:101830001E4B0193184A019BC2F88830184B1B6855
:1018400023F00703164A43F004031360144B1B688C
:1018500003F00703042BF9D10F4B9B680E4A43F0AA
:10186000030393600C4B9B6803F00C030C2BF9D122
:10187000094B1B6E084A43F001031366064BD3F86D
:101880008030054A43F00103C2F88030024BD3F8A0
:10189000803002B0704700BF00100240007000406E
:1018A00000200240015040030048500455550134C7
:1018B00082B00190019BDB689968019BDA68064B56
:1018C0000B439360019BDB689968019BDA68034BCB
:1018D0000B43936002B0704723016745AB89EFCD9E
:1018E00082B00190019BDB685A69019BDB6842F082
:1018F00001025A6102B070470000000000000000C1
:1019000082B00190019BDB685A69019BDB6822F081
:1019100001025A6102B070470000000000000000A0
:1019200082B00190019BDB684FF6FF721A6102B032
:10193000704700BF00000000000000000000000031
:1019400082B00190019BDB681B6903F48033002B9C
:10195000F8D102B0704700BF000000000000000096
:1019600084B00190019BDB681B690393019BDB68DA
:10197000039A92B21A61039B03F01003002B01D06B
:1019800006230DE0039B03F02A03002B07D0019BE5
:101990001B79042B01D1032302E0042300E0002380
:1019A000184604B0704700BF0000000000000000AF
:1019B00008B50348FFF72CFB014B024ADA6008BD6B
:1019C000000800200020024000000000000000008D
:1019D00000B583B001900198FFF76AFF024B002227
:1019E0005A6103B05DF804FB0020024000000000D3
:1019F00082B00190014B184602B070476C7A000823
:101A000000B587B00390029101920093039B049369
:101A100000238DF81730049B1B79052B01D101237E
:101A20001DE0049B03221A710498FFF779FF4FF021
:101A30000062029B1344019A19460098FEF7B0FD1C
:101A4000049BDB681B6903F48043002B02D0022354
:101A50008DF81730049B02221A719DF81730184632
:101A600007B05DF804FB00BF0000000000000000AC
:101A700000B58BB00390029101920093039B0893F1
:101A800000238DF82730089B1B79052B01D10123FA
:101A90005BE0089B04221A710898FFF741FF089841
:101AA000FFF71EFF44E04FF0FF3305934FF0FF3385
:101AB00006934FF00062029B23F007031344079341
:101AC000029B03F00703009A12780AA90B4403F85B
:101AD000142C029B01330293019B013B0193009B59
:101AE00001330093019B002B14BF01230023DAB2C2
:101AF000029B03F00703002B14BF01230023DBB27A
:101B00001340DBB2002BDBD1059A079B1A60079BC1
:101B10000433069A1A600898FFF712FF0898FFF737
:101B20001FFF03468DF827309DF82730002B03D187
:101B3000019B002BB7D100E000BF0898FFF7E0FE43
:101B4000089B02221A719DF8273018460BB05DF8E9
:101B500004FB00BF000000000000000000000000C7
:101B600000B585B00190019B0393039B1B79052B66
:101B700001D1012316E0039B05221A710398FFF798
:101B8000CFFE039BDB685A69039BDB6842F400428B
:101B90005A61039BDB685A69039BDB6842F480321D
:101BA0005A610023184605B05DF804FB00000000F0
:101BB00000B585B001900091019B0393039B1B79B5
:101BC000052B01D101233BE0039B05221A710398E9
:101BD000FFF7A6FE039BDB685A69039BDB6842F0B4
:101BE00002025A61009BFF2B08D8039BDB685A69ED
:101BF000039BDB6822F400625A6107E0039BDB6809
:101C00005A69039BDB6842F400625A61039BDB68FC
:101C10005A69039BDB6822F4FF625A61039BDB680D
:101C20005969009BDA00039BDB680A435A61039BF6
:101C3000DB685A69039BDB6842F480325A610023F7
:101C4000184605B05DF804FB00000000000000002D
:101C500000B585B001900091019B0293029B1B7916
:101C6000052B24D1029BDB681B6903F48033002B16
:101C700013D1029BDB685B69029AD26823F40043AC
:101C800023F0060353610298FFF76AFE03468DF8BE
:101C90000F30029B02221A710CE0009B002B02D035
:101CA000009B05221A6001238DF80F3002E000230B
:101CB0008DF80F309DF80F30184605B05DF804FB25
:101CC00010B586B001900091019B029300238DF81E
:101CD0001330029B1B79052B01D1012327E04FF024
:101CE0000064029B00991846FFF742F9034623441B
:101CF0000393029B03221A71002305930EE0039BBA
:101D00001B68B3F1FF3F03D005238DF8133009E0C2
:101D1000039B04330393059B01330593059BB3F5A4
:101D2000007FECD3029B02221A719DF813301846F3
:101D300006B010BD00000000000000000000000020
:101D4000704700BF0000000000000000000000001D
:101D500082B020230193019B83F3118802B0704766
:101D600082B000230193019B83F3118802B0704776
:101D700008B5FFF7EDFF08BD0000000000000000FF
:101D800008B5FFF7EDFF08BD0000000000000000EF
:101D900008B500F005FC08BD0000000000000000D0
:101DA0001B4B9B6D1A4A43F001039365184B9B6FC5
:101DB000174A43F001039367154B9B6F154B9B68C4
:101DC000144A43F0010393604FF0804341F63F72A1
:101DD0009A624FF080434FF0FF32DA624FF0804357
:101DE00000229A614FF0804300225A634FF08043F3
:101DF0000022DA604FF0804300225A604FF08043A7
:101E000001225A614FF0804301221A60704700BFDF
:101E100000100240002004E000000000000000006C
:101E200000B583B04FF080430193019B1B69009381
:101E3000019BDB68DBB2009A13400093009BDA43FE
:101E4000019B1A61009B03F00203002B05D0FFF7F2
:101E50008FFFFFF79DFFFFF793FF03B05DF804FBD3
:101E600082B020230193019B83F3118802B0704755
:101E700082B000230193019B83F3118802B0704765
:101E800008B5FFF7EDFF08BD0000000000000000EE
:101E900008B5FFF7EDFF08BD0000000000000000DE
:101EA00000B583B0019000910099019801F090F97C
:101EB00003B05DF804FB00BF00000000000000005C
:101EC00084B001900091019B5B6D0293019B9A6D20
:101ED000009B1B68B2FBF3F30393009B5B6803F466
:101EE0000043002B08D0039B23F007035A00039BF9
:101EF00003F0070313430393029B039ADA60009BEA
:101F00009B6843F04002029B5A60009BDB6843F0F1
:101F10000102029B9A60009B5B6843F4967343F056
:101F20000103029A1360029B4FF0FF321A62009B7A
:101F30005B6803F48063002B18D0009B5B6803F0A0
:101F40001023002B03D0B3F1805F05D009E0019B83
:101F50007F2283F85C200DE0019B3F2283F85C2008
:101F600008E0019BFF2283F85C2003E0019BFF2235
:101F700083F85C2004B070470000000000000000FF
:101F800000B585B00190009100230393009B03F0FE
:101F90000803002B03D0039B43F080030393009BB3
:101FA00003F00103002B03D0039B43F020030393B2
:101FB000009B03F00203002B03D0039B43F040037C
:101FC0000393009B03F00403002B03D0039B43F413
:101FD00080730393FFF754FF019B04330399184662
:101FE000FFF75EFFFFF754FF05B05DF804FB00BF8D
:101FF00082B00190034B1B68024A43F0C003136098
:1020000002B07047004400400000000000000000E3
:1020100000B583B00D48FFF733F90C4B0093002354
:1020200010220B490B48FEF753FD084B00930A4B57
:1020300010220A490A48FEF733FE044B094A5A6542
:10204000024B094A9A6503B05DF804FB10080020B2
:10205000700800201C080020F11F000880080020E4
:10206000400800200044004000B4C4040000000008
:1020700000B583B001900091009B002B01D10F4B64
:102080000093019B1B7A012B11D1019B0C4A9342B7
:102090000DD10C4B9B6D0B4A43F400339365094BF8
:1020A0009B6F084A43F400339367064B9B6F00997C
:1020B0000198FFF705FF03B05DF804FB887A00087C
:1020C0001008002000100240000000000000000086
:1020D00000B587B00190019B5B6D0493049B1B6866
:1020E0000393049BDB690593049B059A1A62059B85
:1020F00003F00F03002B03D005990198FFF740FF71
:10210000059B03F48073002B1FD0FFF7B9FE019BE2
:1021100004334FF400711846FFF7C2FEFFF7B8FE14
:1021200013E0FFF7ADFE049B9B8C9BB2DAB2019BE0
:1021300093F85C301340DBB219460198FFF7D0F8F2
:10214000FFF7A6FE049BDB690593059B03F02003C4
:10215000002BE6D1039B03F08003002B22D126E065
:10216000FFF78EFE019B30331846FEF709FE029002
:10217000029B002B0DDA019B043308211846FFF760
:102180008FFE039B23F08002049B1A60FFF780FE02
:102190000DE0029B9AB2049B1A85FFF779FE049B1F
:1021A000DB690593059B03F08003002BD8D1039BCB
:1021B00003F04003002B25D0059B03F04003002BC8
:1021C00020D0FFF75DFE019B5A6C019B9B6C9A42ED
:1021D00005D1019B9B6B002B01D0012300E0002364
:1021E00003F00103DBB2002B0AD0019B0433102162
:1021F0001846FFF755FE039B23F04002049B1A602C
:10220000FFF746FE07B05DF804FB00BF00000000CA
:1022100082B001900091009B5A68019B5A60009B1C
:10222000DA69019BDA62009B9A68019B9A60009BC5
:10223000DA68019BDA60009B1A69019B5A61009B76
:102240005A69019B1A62009B9A69019B5A62009B22
:102250001A68019B1A60009B1A6A019BDA6102B03E
:10226000704700BF000000000000000000000000F8
:1022700008B51F4BDB6A1E4A43F0FF03D3621C4BB9
:10228000DB6A1B4A23F0FF03D362194BDB6A184B4E
:10229000DB6C174A43F0FF03D364154BDB6E144A23
:1022A00043F0FF03D366124BDB6E12494FF09040B0
:1022B000FFF7AEFF10491148FFF7AAFF1049114878
:1022C000FFF7A6FF10491148FFF7A2FF1049114878
:1022D000FFF79EFF10491148FFF79AFF1049114878
:1022E000FFF796FF10491148FFF792FF08BD00BFA6
:1022F00000100240987A0008BC7A000800040048E8
:10230000E07A000800080048047B0008000C004840
:10231000287B0008001000484C7B0008001400488F
:10232000707B000800180048947B0008001C0048DF
:1023300008B5FFF79DFFFFF7EBF908BD00000000AF
:10234000704700BF00000000000000000000000017
:1023500082B001900091019A009B1344184602B08C
:10236000704700BF000000000000000000000000F7
:1023700082B001900091009A019BD31A184602B0D6
:10238000704700BF000000000000000000000000D7
:1023900008B5FEF74DFA08BD00000000000000007F
:1023A00000B583B001900198FEF74AFA03B05DF8DA
:1023B00004FB00BF0000000000000000000000005F
:1023C00008B5FEF74DFA0346184608BD00000000A8
:1023D00082B000230193019B83F3118862B602B09F
:1023E000704700BF00000000000000000000000077
:1023F00082B020230193019B83F3118802B07047C0
:1024000082B000230193019B83F3118802B07047CF
:1024100008B5FFF7D5FF0346184608BD00000000C9
:1024200010B586B0394BDB690593FFF7F1FF0290D9
:10243000364B9B6A02991846FFF79AFF0390059B5B
:102440009B68039A9A4232D3304B9A6A059B9B68E9
:1024500013442E4A9362059B9B68039AD31A0393F5
:10246000059B1B682A4A5A60059B1B68274AD36153
:10247000059BDB680193059B0022DA60234BDB6937
:10248000234A934201D1FFF783FFFFF7B9FF059B72
:102490001A69019B10469847FFF7AAFF1B4BDB699F
:1024A0000593059B9B68039A9A42CDD2BDE7174BD3
:1024B000DB69174A934226D0144B9A6A039B134454
:1024C000124A9362114BDB699968104BDB69039ADE
:1024D0008A1A9A60059B9C680C4B9B6A0299184665
:1024E000FFF746FF0346E31A0493049B012B01D830
:1024F0000223049304990298FFF72AFF0346184623
:10250000FFF74EFF00E000BF06B010BD68090020D5
:10251000840900200000000000000000000000000E
:1025200008B500F0C5FE00F013FF00F069FF08BD1C
:1025300082B00190FEE700BF000000000000000034
:1025400008B500F01DFA00F08BF8FFF7E9FF00F086
:10255000B7FD80220B490C4800F022FC03460B4AD1
:1025600093610A4B9B690022DA61084B9B69012247
:1025700083F8202000F0DCFFFFF72AFF044800F07A
:102580007FFC08BDB8870008980900206809002072
:102590009887000800000000000000000000000014
:1025A00008B5FFF73DFF08BD000000000000000077
:1025B00082B001900091019A009B1344184602B02A
:1025C000704700BF00000000000000000000000095
:1025D00082B001900091009A019BD31A184602B074
:1025E000704700BF00000000000000000000000075
:1025F00000B583B001900198FEF70AF903B05DF8C9
:1026000004FB00BF0000000000000000000000000C
:1026100008B5FEF70DF908BD00000000000000003D
:1026200000B583B001900198FEF70AF903B05DF898
:1026300004FB00BF000000000000000000000000DC
:1026400008B5FEF70DF90346184608BD0000000066
:1026500008B5FFF7F5FF0346184608BD0000000067
:10266000064B074ADA61054B054A1A62034B4FF0E5
:10267000FF325A62014B00229A62704768090020BB
:10268000840900200000000000000000000000009D
:1026900000B589B00390029101920093039B009AC8
:1026A0001A61039B019ADA60FFF7D2FF0590029B43
:1026B000012B01D8022302933F4BDB693F4A93422F
:1026C0001CD13D4A059B93623B4A039BD3613A4A26
:1026D000039B1362039B394A1A60039B374A5A6073
:1026E000039B029A9A60344B9B6A02991846FFF743
:1026F0005FFF03461846FFF77BFF5AE02E4BDB696E
:1027000007932D4B9B6A05991846FFF761FF024618
:10271000029B13440693284B9B6A05991846FFF7C2
:1027200057FF0246069B934208D2079B9B68069A76
:10273000D31A0693079B1B68079319E0079B9B68B6
:10274000069A9A4214D2069B04931B4B9B6A0499E7
:102750001846FFF72DFF03461846FFF761FF07E015
:10276000079B9B68069AD31A0693079B1B680793DF
:10277000079B9B68069A9A42F2D8039B079A1A60B5
:10278000039B1B685A68039B5A60039B5B68039A10
:102790001A60079B039A5A60039B069A9A60079BEC
:1027A0009A68069BD21A079B9A60034B4FF0FF3240
:1027B0005A6209B05DF804FB680900208409002012
:1027C00010B584B00190374BDB69019A9A421BD057
:1027D000019B5B68019A12681A60019B1B68019A51
:1027E00052685A60019B0022DA60019B1B682E4AE6
:1027F000934251D0019B1B689968019B9A68019B89
:102800001B680A449A604AE0019B1B68254AD36111
:10281000244BDB69244A5A60019B0022DA60214B79
:10282000DB69214A934202D1FFF7F2FE37E01D4BEC
:10283000DB699968019B9A681A4BDB690A449A60C4
:10284000184B9C6AFFF704FF034619462046FFF722
:10285000BFFE0290134BDB699B68029A9A421DD21D
:10286000104BDB699A68029BD31A0393039B012BDD
:1028700003D8029B0233039303E0039A029B1344A1
:102880000393084B9B6A03991846FFF791FE034692
:102890001846FFF7C5FE02E000BF00E000BF04B02D
:1028A00010BD00BF6809002084090020000000005E
:1028B00082B00190019B019A1A60019B019A5A60B3
:1028C00002B070470000000000000000000000009F
:1028D00084B00190019B1B680393039B1A68019BC2
:1028E0001A60019B1B68019A5A60039B184604B04A
:1028F000704700BF00000000000000000000000062
:1029000082B00190019B5B68019A12681A60019B7A
:102910001B68019A52685A60019B184602B07047C2
:1029200082B020230193019B83F3118802B070478A
:1029300082B000230193019B83F3118802B070479A
:1029400082B00190019BDB68002B14BF01230023A0
:10295000DBB2184602B07047000000000000000023
:1029600082B00190019B9B685A1C019B9A6002B047
:10297000704700BF000000000000000000000000E1
:1029800008B50648FFF794FF044B00229A60034BFA
:10299000024A1A61014B014A5A6108BD68090020C8
:1029A00084B00190019B002283F820200E4B0393FA
:1029B000039B1B680393039B9A68019B9B689A4245
:1029C000F6D2019B039A1A60039B5A68019B5A60D6
:1029D000019B5B68019A1A60039B019A5A60019BF4
:1029E000184604B0704700BF6809002000000000CE
:1029F00084B00190019B002283F820200E4B0393AA
:102A0000039B1B680393039B9A68019B9B689A42F4
:102A1000F6D8019B039A1A60039B5A68019B5A607F
:102A2000019B5B68019A1A60039B019A5A60019BA3
:102A3000184604B0704700BF68090020000000007D
:102A400000B585B003468DF807300E4B9B690393A4
:102A5000039B9DF8072083F820200A48FFF738FFE2
:102A60000346084A9361074B9B69012283F82020A3
:102A7000044B9B6903991846FDF702FC05B05DF80D
:102A800004FB00BF680900200000000000000000F7
:102A900000B585B00190019B0393FFF741FF039BB5
:102AA00093F82030072B23D801A252F823F000BF5F
:102AB000D12A0008F12A0008F12A0008D72A0008C4
:102AC000EB2A0008E12A0008F12A0008EB2A000896
:102AD000FFF72EFF15E0039B5B6A00221A6007E0F8
:102AE000039B5B6A1846FFF73BFF0398FFF708FF5D
:102AF000039B4FF0FF325A620398FFF751FFFFF735
:102B000017FF05B05DF804FB0000000000000000A6
:102B100000B589B0034600918DF80730009BB3F1F2
:102B2000FF3F17D0114B9B6903A8114A0099FFF78B
:102B3000AFFD9DF807301846FFF782FF03AB18463C
:102B4000FFF7FEFE0346002B09D003AB1846FFF744
:102B500037FE04E09DF807301846FFF771FF034B7E
:102B60009B695B6A184609B05DF804FB68090020A0
:102B7000912A000800000000000000000000000092
:102B800000B585B001900091104B9B690393019BA8
:102B9000009A5A62019B9A68039B9B689A4203D8E9
:102BA0000198FFF7FDFE0EE00398FFF721FF039069
:102BB000064A019B9361019B012283F8202003991F
:102BC0000198FDF75DFB05B05DF804FB6809002086
:102BD00082B0094B1B689B680193074B9B699B68FC
:102BE0000093019A009B9A428CBF01230023DBB221
:102BF000184602B0704700BF6809002000000000BE
:102C000000B583B00D4B9B6901930C48FFF760FE44
:102C100003460A4A9361094B9B69012283F82020ED
:102C20000198FFF7E5FE0190044B9B690199184656
:102C3000FDF726FB03B05DF804FB00BF6809002028
:102C400082B00190019B019A1A6002B0704700BFE8
:102C500082B00190019B1B68019A9A4214BF012324
:102C60000023DBB2184602B0704700BF000000002E
:102C700082B00190019B019A1A60019B019A5A60EF
:102C800002B07047000000000000000000000000DB
:102C900082B00190019B1B68019A9A4214BF0123E4
:102CA0000023DBB2184602B0704700BF00000000EE
:102CB00084B00190019B1B680393039B1A68019BDE
:102CC0001A60039B184604B0704700BF0000000064
:102CD00082B001900091019B009A1A60009B5A6893
:102CE000019B5A60019B5B68019A1A60009B019AE4
:102CF0005A6002B0704700BF0000000000000000F2
:102D000084B00190019B1B680393039B1A68019B8D
:102D10001A60019B1B68019A5A60039B184604B015
:102D2000704700BF0000000000000000000000002D
:102D300082B020230193019B83F3118802B0704776
:102D400082B000230193019B83F3118802B0704786
:102D500000B583B0019001990820FFF7D9FE03B0B8
:102D60005DF804FB0000000000000000000000000F
:102D700000B585B0019000910198FFF7C1FF039065
:102D8000039B009A5A620398FFF70AFE05B05DF8AC
:102D900004FB00BF00000000000000000000000075
:102DA00000B585B0039002910192039B019A9A604D
:102DB000039B022283F82020039B002283F821201A
:102DC000039B019ADA63039B00229A63039B002210
:102DD0005A63039B012283F82220039B029A9A6183
:102DE000039B0E4A1A610D4B5A69039B5A61039B60
:102DF0005B69039A1A61094A039B5361039B283359
:102E00001846FFF71DFF039B2C331846FFF730FFD2
:102E1000039B184605B05DF804FB00BF680900205D
:102E200000B585B00190019B9B68483B0393019BD3
:102E30005A68039BDA61039BA3F12402039BDA60C7
:102E4000019B1A69039BDB681A60019B5A69039B0B
:102E5000DB685A60039BDB68074A1A62019B1968AA
:102E6000019BDB681A460398FFF79AFF0346184652
:102E700005B05DF804FB00BF9102000800000000EF
:102E800000B585B00190FFF753FF0198FFF7C8FF29
:102E9000039000210398FFF773FEFFF751FF039B98
:102EA000184605B05DF804FB0000000000000000BB
:102EB00000B587B00390029101920093FFF738FFAD
:102EC000029B483B039A13440593059B039ADA61DE
:102ED000059BA3F12402059BDA60059BDB68009A41
:102EE0001A60059BDB68089A5A60059BDB68094AF3
:102EF0001A62019A08490598FFF752FF05900021D0
:102F00000598FFF73DFEFFF71BFF059B184607B02E
:102F10005DF804FB91020008B08700080000000083
:102F200000B583B00190FFF703FF019800F008F8A7
:102F300003B05DF804FB00BF0000000000000000CB
:102F400000B585B001901A4B9B690393039B019ACE
:102F50005A6208E0039B28331846FFF7A9FE034690
:102F60001846FFF71DFD039B28331846FFF770FE38
:102F70000346002BEED1039B93F82230002B10D197
:102F8000039B93F8213003F00303002B09D1039B2B
:102F90005B69039A12691A61039B1B69039A526960
:102FA0005A610F20FFF74CFD05B05DF804FB00BF30
:102FB0006809002000000000000000000000000080
:102FC00000B583B00190FFF7B3FE0198FFF7C0FE94
:102FD000FFF7B6FE03B05DF804FB00BF0000000081
:102FE00000B583B001900091009B002B02D14FF0FF
:102FF000FF330AE0074B9B6901991846FFF768FE0B
:1030000000990420FFF784FD0346184603B05DF8DD
:1030100004FB00BF68090020000000000000000061
:1030200000B583B0019000910198FFF731FE03468F
:10303000002B03D000990198FFF79AFE03B05DF8CA
:1030400004FB00BF000000000000000000000000C2
:1030500030B484B0039002910192039BDB685A1C48
:10306000039BDA60039B9B68029AD21A019BD21AD7
:10307000039B9A60039BD3E90401039B9B681A4658
:103080004FF00003841841EB0305039BC3E904459B
:10309000039B9A68039B5B689A4203D9039B9A68D7
:1030A000039B5A60039B9A68039B1B689A4203D256
:1030B000039B9A68039B1A6004B030BC704700BF42
:1030C00000B589B00E4B00225A676B46184600F0D7
:1030D0001FF8042307936B46184600F031F86B463F
:1030E000184600F03DF8079B013B0793079B002B18
:1030F000F1D1009B024A536709B05DF804FB00BFA1
:10310000680900200000000000000000000000002E
:1031100082B00190019B4FF0FF321A60019B0022A8
:103120005A60019B00229A60019B0022DA6001999B
:103130004FF000024FF00003C1E9042302B07047D2
:1031400082B00190024B5A68019B9A6002B07047AE
:10315000001000E00000000000000000000000007F
:1031600000B583B00190054B5B68054A526F194664
:103170000198FFF76DFF03B05DF804FB001000E05D
:1031800068090020000000000000000000000000AE
:1031900082B00190019B019A1A60019B019A5A60CA
:1031A00002B07047000000000000000000000000B6
:1031B00000B583B00190019B1846FFF7E9FF019B22
:1031C00000229A6003B05DF804FB00BF000000001D
:1031D00000B585B001900091019B1B68039319E035
:1031E000039BDA68009B1A43039BDA60009B002B69
:1031F00005D0039B1A69009B1340002B07D0039B4B
:103200005A68039B9B681946104600F011F8039B0F
:103210001B680393039A019B9A42E1D105B05DF8C4
:1032200004FB00BF000000000000000000000000E0
:1032300000B583B001900091019B5A6B009B1A432B
:10324000019B5A63019B93F820300A2B06D1019B06
:103250005A6B019B5B6A1340002B0DD1019B93F8C5
:1032600020300B2B0ED1019B5A6B019B5B6A1A40DD
:10327000019B5B6A9A4205D1019B00225A62019828
:10328000FFF78EFB03B05DF804FB00BF00000000F9
:1032900082B020230193019B83F3118802B0704711
:1032A00082B000230193019B83F3118802B0704721
:1032B000034B044A1A60024B034A5A60704700BF2E
:1032C000E0090020C00F0020008001200000000065
:1032D00086B0039002910192104B5A68039B5B42A7
:1032E00013441A46029B5B4213400593019B5B42C9
:1032F000059A13440493094B1B68049A9A4204D319
:10330000064B5B68049A9A4201D9002303E0034A02
:10331000049B5360059B184606B07047E0090020E7
:1033200000B587B0039002910192FFF7B1FF019AB7
:1033300002990398FFF7CCFF0590FFF7B1FF059BBB
:10334000184607B05DF804FB000000000000000014
:1033500008B5064B064A1A60044B00225A60034B1C
:1033600000229A600348FFF723FF08BDE809002008
:1033700021330008F40900200000000000000000D4
:1033800084B00390029101920093039B00221A6083
:10339000039B029A5A60039B019A9A60039B009ACE
:1033A000DA6004B0704700BF0000000000000000B9
:1033B00000B583B001900091002200990198FFF7B9
:1033C00087FF0346184603B05DF804FB00000000C9
:1033D00000B585B0039002910192019B04220299ED
:1033E0000398FFF7CDFF05B05DF804FB0000000077
:1033F00082B00190019B019A1A6002B0704700BF31
:1034000008B51048FFF7D4FE0F48FFF7F1FF0F4A49
:1034100014210F48FFF7DCFF0E48FFF7E9FF0E48C5
:10342000FFF7E6FF094A1C210C48FFF7D1FF0C48C3
:10343000FFF7DEFF0B48FFF7DBFF0B48FFF7D8FF76
:1034400008BD00BF040A0020140A0020B1330008A0
:10345000180A0020280A00202C0A0020300A002028
:10346000400A0020440A0020480A00200000000012
:1034700084B00190019B03F0070303930A4BDB68C0
:103480000293029A4FF6FF0313400293039B1A0222
:10349000029B134343F0BF6343F400330293024A99
:1034A000029BD36004B0704700ED00E00000000014
:1034B00082B0034600918DF807309DF90730002B4C
:1034C0000ADB009BDAB20B499DF907301201D2B238
:1034D0000B4483F800230BE0009BDAB206499DF809
:1034E000073003F00F03043B1201D2B20B441A76EB
:1034F00002B0704700E100E000ED00E000000000D5
:1035000084B0EFF309830093009B0393039B203364
:103510000393039B0193019B83F309880023029388
:10352000029B83F3118804B0704700BF00000000C5
:1035300000B583B020230193019B83F3118862B609
:103540000320FFF795FF0C4BDB680B4A43F08073B9
:10355000D3600A4B1B68094A43F001031360012141
:103560006FF00400FFF7A4FF02216FF00100FFF7E6
:103570009FFF03B05DF804FBF0ED00E0001000E0F9
:1035800000B587B020230393039B83F31188174B67
:103590005B6803F40063002B1FD0EFF309830193F2
:1035A000019B0593059B203B0593059B0493049B7E
:1035B0004FF08072DA61059B0293029B83F30988C6
:1035C000FFF706FB0346002B03D0094A049B9A61D0
:1035D00008E0084A049B9A6104E000230093009BE2
:1035E00083F3118807B05DF804FB00BF00ED00E035
:1035F000A3020008A602000800000000000000006E
:1036000084B0034602910192ADF80E3019E0BDF886
:103610000E301B021AB2BDF80E301B0A9BB21946BF
:10362000029B1B784B400B4931F813301BB25340BF
:103630001BB2ADF80E30029B01330293019B013B9C
:103640000193019B002BE2D1BDF80E30184604B067
:10365000704700BFD0870008000000000000000095
:1036600084B00190019B00221A72019B0022DA6053
:10367000019B00221A61019B00225A6100230393DF
:103680000FE0019B039A0332002143F83210019AA4
:10369000039B0333DB00134400225A60039B013376
:1036A0000393039B1F2BECD904B07047000000006C
:1036B00000B583B001900B468DF803309DF80330C0
:1036C000002B0BD1019B5B681A68019B5B68DB6870
:1036D00019461046FDF74CFC03460AE0019B5B6867
:1036E0001A68019B5B685B6919461046FDF740FC50
:1036F0000346184603B05DF804FB00BF000000005D
:1037000010B586B00390029101920093039B5B6811
:103710001B681B689C68039B5B681868009B019A88
:103720000299A04703468DF817309DF81730002BFB
:1037300005D0039B04221A706FF0070300E00023FA
:10374000184606B010BD00BF0000000000000000D9
:1037500010B588B00390029101920093039B5B68BF
:103760001B681B68DC68039B5B681868009B019AF8
:103770000299A04703468DF81F309DF81F30002B9B
:1037800039D0039B04221A706FF0070337E0019BC6
:10379000202B28BF20230693039B03F5F273069A80
:1037A00002990398FFF7ACFF03468DF817309DF997
:1037B0001730002B02D09DF9173020E0039B03F552
:1037C000F273069A0099184604F0BCF80346002BE1
:1037D00005D0039B04221A706FF007030FE0019AD3
:1037E000069BD31A0193029A069B13440293009AF4
:1037F000069B13440093019B002BC8D1002318465D
:1038000008B010BD00000000000000000000000033
:1038100000B587B003900291019200933CE0029BB7
:1038200043F01F02029BD31A01330593059A009BB4
:103830009A4201D9009B0593039B03F5F273059A05
:1038400001990398FFF75CFF03468DF813309DF94B
:103850001330002B02D09DF9133021E0039B03F5B8
:10386000F273059A02990398FFF772FF03468DF8E9
:1038700012309DF91230002B02D09DF912300FE06A
:10388000019A059B13440193029A059B13440293EA
:10389000009A059BD31A0093009B002BBFD10023F5
:1038A000184607B05DF804FB0000000000000000AF
:1038B00000B587B001900B468DF803309DF80330BA
:1038C000002B0CD1019B5B68DB680593019B5B6857
:1038D000DA68019B5B681B691344049352E0019B07
:1038E0005B685B690593019B5B685A69019B5B6838
:1038F0009B691344049345E0019B5B681B681B684C
:103900005B69019A52681268059910469847034608
:103910008DF80F309DF80F30002B05D0019B04224D
:103920001A706FF0070332E0019B5B681B68184652
:10393000FDF7B6FA03468DF80F309DF80F30002BD7
:1039400005D0019B04221A706FF007031FE0019B52
:103950005B681B681B68DB69019A526812680599ED
:103960001046984703468DF80F309DF80F30002B16
:1039700005D0019B04221A706FF0070307E0059B36
:1039800001330593059A049B9A42B5D30023184648
:1039900007B05DF804FB00BF00000000000000005D
:1039A00000B587B001900B468DF803309DF80330C9
:1039B000002B0CD1019B5B68DB680593019B5B6866
:1039C000DA68019B5B681B69134404932EE0019B3A
:1039D0005B685B690593019B5B685A69019B5B6847
:1039E0009B691344049321E0019B5B681B681B687F
:1039F000DB69019A52681268059910469847034698
:103A00008DF80F309DF80F30052B02D16FF00603B3
:103A100011E09DF80F30002B05D0019B04221A7095
:103A20006FF0070307E0059B01330593059A049B9C
:103A30009A42D9D30023184607B05DF804FB00BFB3
:103A400000B58BB003900B4601928DF80B309DF8BA
:103A50000B30002B04D1039B5B68DB68099303E008
:103A6000039B5B685B690993134B0593134B0693A8
:103A7000019B0793039B5B685B689BB2ADF82030AA
:103A800005AB0E2219464FF6FF70FFF7B9FD03464E
:103A9000ADF82230039B5B681B6809991846FDF757
:103AA00067FA014605AB10220398FFF751FE034663
:103AB00018460BB05DF804FBDE5A70ECC59C33F081
:103AC00000B585B00190019BD3F8E421019B5B68B0
:103AD0005B689A4219D1019BD3F8E821019B5B688E
:103AE0005B689A4211D1019BD3F8EC21019B5B6882
:103AF0005B689A4209D1019BD3F8F021019B5B6876
:103B00005B689A4201D1002334E0019BD3F8E43191
:103B10001A4A934216D1019BD3F8E831184A9342CE
:103B200010D1019BD3F8EC21019B5B685B689A4242
:103B300008D0019BB3F8F021019B5B685B689BB2E6
:103B40009A4201D0022315E0019B03F5F2730E2285
:103B500019464FF6FF70FFF753FD0346ADF80E30E0
:103B6000019BB3F8F231BDF80E209A4201D0022336
:103B700000E00123184605B05DF804FBDE5A70EC46
:103B8000C59C33F0000000000000000000000000B1
:103B900000B593B003900B4601928DF80B30019B5A
:103BA00000221A709DF80B3019460398FFF780FD2C
:103BB0000D900D9B10331193039B5B689B680D9ACE
:103BC00013440C93AFE005AB102211990398FFF753
:103BD00097FD03468DF82F309DF92F30002B02D032
:103BE0009DF92F30ABE0059A039B5B685B689A42B6
:103BF0000CD1069A039B5B685B689A4206D1079AD0
:103C0000039B5B685B689A4200F09480059B4E4A78
:103C1000934211D1069B4D4A93420DD1BDF81C3001
:103C2000002B09D0BDF81C30202B05D8089A0C9920
:103C3000119BCB1A9A4203D9019B01221A7079E099
:103C40004FF6FF73ADF84230089B002B33D0119B29
:103C500010330F93089B0E932AE00E9B202B28BF56
:103C600020230A93039B03F5F2730A9A0F99039892
:103C7000FFF746FD03468DF827309DF92730002BCE
:103C800002D09DF927305AE0039B03F5F271BDF88D
:103C900042300A9A1846FFF7B3FC0346ADF84230AB
:103CA0000F9A0A9B13440F930E9A0A9BD31A0E93F2
:103CB0000E9B002BD1D1BDF81E30BDF842209A4298
:103CC00003D0019B01221A7025E0089B002B11D123
:103CD000BDF81C305A1E039B0332002143F83210FA
:103CE000BDF81C30013B039A0333DB001344002270
:103CF0005A6010E0BDF81C305A1E039B0332119924
:103D000043F83210BDF81C30013B089A0399033385
:103D1000DB000B445A60089B0F3323F00102119B18
:103D20001344023311930C9B103B119A9A42FFF4F7
:103D30004AAF00E000BF039B119A1A6100231846A6
:103D400013B05DF804FB00BFF045AE5F5FAE45F019
:103D500000B587B00390019200930B468DF80B30AD
:103D60009DF80B3019460398FFF7A2FC0146039B10
:103D700003F5F27310220398FFF7C2FC03468DF897
:103D800017309DF91730002B02D09DF9173021E034
:103D9000039BD3F8EC21009B1A600398FFF790FE79
:103DA00003461A46019B1A70019B1B78002B10D109
:103DB0009DF80B3019460398FFF7F2FD03468DF886
:103DC00016309DF9163013F1070F02D1019B022224
:103DD0001A700023184607B05DF804FB00000000CD
:103DE00000B589B00190019B1B7A8DF813309DF8C6
:103DF0001330002B03D101238DF81B3002E0002388
:103E00008DF81B309DF81B3019460198FFF750FCC8
:103E10000346103305930023079332E0019A079B72
:103E20000333DB0013445B680F3323F001030233D9
:103E30000393019B079A033253F83230002B1DD0B5
:103E4000019B079A033253F83220039B059901988E
:103E5000FFF7DEFC03468DF80B309DF90B30002B8D
:103E600002D09DF90B303EE0019B079A0332059981
:103E700043F83210059A039B13440593079B0133C3
:103E80000793079B1F2BC9D9019B9DF81B201A7212
:103E9000019BDB685A1C019BDA60019B059A1A6141
:103EA000019BDA689DF81B3019460198FFF7C8FDA1
:103EB00003468DF812309DF91230002B02D09DF987
:103EC000123010E09DF8133019460198FFF7F0FC0E
:103ED00003468DF811309DF91130002B02D09DF969
:103EE000113000E00023184609B05DF804FB00BF64
:103EF00000B58DB0019000230493002303930023A9
:103F00008DF82E3000238DF80B300198FFF7A8FBB9
:103F100004AB0DF1160200210198FFF719FF0346CB
:103F20008DF827309DF92730002B02D09DF92730DE
:103F30009AE103AB0DF1150201210198FFF708FF8B
:103F400003468DF826309DF92630002B02D09DF9CE
:103F5000263089E19DF816309B009DF8152013430B
:103F60000A2B00F2038101A252F823F0993F0008C6
:103F700079400008894000086D4100088140000830
:103F8000BF3F0008194100086D410008D1400008FA
:103F90004341000815400008012200210198FFF765
:103FA0004FFD03468DF81A309DF91A30002B02D0D0
:103FB0009DF91A3058E100238DF82F30D9E0049A8A
:103FC000039B9A4211D901210198FFF771FC034626
:103FD0008DF81D309DF91D30002B02D09DF91D304C
:103FE00042E100238DF82F3010E000210198FFF707
:103FF0005FFC03468DF81E309DF91E30002B02D069
:104000009DF91E3030E101238DF82F3001238DF80A
:104010002E30AEE000210198FFF74AFC03468DF8F0
:1040200025309DF92530002B02D09DF925301BE16C
:1040300001210198FFF73CFC03468DF824309DF9DF
:104040002430002B02D09DF924300DE10122002103
:104050000198FFF7F5FC03468DF823309DF92330D6
:10406000002B02D09DF92330FEE000238DF82F3085
:1040700001238DF82E307CE001238DF82F3078E07D
:1040800000238DF82F3074E001210198FFF710FC18
:1040900003468DF81C309DF91C30002B02D09DF991
:1040A0001C30E1E0012200210198FFF7C9FC034622
:1040B0008DF81B309DF91B30002B02D09DF91B3071
:1040C000D2E000238DF82F3001238DF82E3050E000
:1040D00000210198FFF7ECFB03468DF821309DF994
:1040E0002130002B02D09DF92130BDE001220121B9
:1040F0000198FFF7A5FC03468DF820309DF920308C
:10410000002B02D09DF92030AEE001238DF82F3036
:1041100001238DF82E302CE001210198FFF7C8FB18
:1041200003468DF81F309DF91F30002B02D09DF9FA
:104130001F3099E000238DF82F3001238DF82E30A9
:1041400017E000210198FFF7B3FB03468DF82230FA
:104150009DF92230002B02D09DF9223084E001230A
:104160008DF82F3001238DF82E3002E06FF0080318
:104170007AE09DF82F3019460198FFF799FA014629
:10418000019B03F5F27310220198FFF7B9FA034679
:104190008DF819309DF91930002B02D09DF9193096
:1041A00062E00198FFF78CFC0346012B02D06FF010
:1041B000080359E0019B9DF82F201A72019BD3F848
:1041C000EC21019BDA600DF10B029DF82F301946AE
:1041D0000198FFF7DDFC03468DF818309DF9183083
:1041E000002B02D09DF918303EE0019B10225A614D
:1041F00000230A9318E0019B0A9A033253F83230E5
:10420000002B0ED0019B5A6901990A9B0333DB00F6
:104210000B445B680F3323F0010313449A1C019B8A
:104220005A610A9B01330A930A9B1F2BE3D99DF81D
:104230000B30002B0CD00198FFF7D2FD03468DF810
:1042400017309DF91730002B02D09DF917300BE085
:104250009DF82E30002B03D19DF80B30002B01D0A0
:10426000012300E000235BB218460DB05DF804FBAB
:1042700000B585B001900198FFF7F2F90023039390
:104280001DE00198FFF734FE03468DF80B309DF9D1
:104290000B3013F1090F05D1019B04221A709DF90F
:1042A0000B3014E09DF90B30002B05DB019B022243
:1042B0001A709DF90B300AE0039B01330393039BB3
:1042C000022BDED9019B04221A706FF007031846F7
:1042D00005B05DF804FB00BF000000000000000016
:1042E00082B00190019B01221A70019B00225A604A
:1042F00002B0704700000000000000000000000055
:1043000000B583B001900091019B009A5A6001981A
:10431000FFF7AEFF0346184603B05DF804FB00BF8D
:1043200082B00190019B00225A60019B01221A7009
:1043300002B0704700000000000000000000000014
:1043400000B585B00190019B1B78022B02D04FF085
:10435000FF331FE000210198FFF7AAFA03468DF80A
:104360000F309DF90F30002B02D09DF90F3011E076
:1043700001210198FFF79CFA03468DF80E309DF954
:104380000E30002B02D09DF90E3003E00198FFF7AC
:104390006FFF0346184605B05DF804FB00000000FF
:1043A00000B587B00390029101920093039B1B78A4
:1043B000022B06D0039B1B78032B02D04FF0FF3358
:1043C00069E0029B5A1E039B033253F83230002BE4
:1043D00002D16FF002035EE0019B1A68029B013B71
:1043E00003990333DB000B445B689A4202D26FF0FF
:1043F000010350E0029B5A1E039B033253F8321014
:10440000039B03F5F27310220398FFF779F9034633
:104410008DF817309DF91730002B02D09DF9173019
:1044200039E0029B013B039A0333DB0013445A68D3
:10443000019B1A60029B5A1E039B033253F83230D1
:1044400003F11001019B1A68009B0398FFF758F9CC
:1044500003468DF816309DF91630002B02D09DF9D9
:10446000163018E0019B1B681A4600994FF6FF7042
:10447000FFF7C6F80346ADF81430039BB3F8EE31EE
:10448000BDF814209A4205D0039B04221A706FF0E5
:10449000070300E00023184607B05DF804FB00BFE7
:1044A00000B58DB00390029101920093019B0F33F0
:1044B00023F0010302330A93039B1B78022B40F085
:1044C000C98000238DF82F300A9B10330993039B7A
:1044D0005B689A68039B5B69D31A099A9A4202D96E
:1044E0006FF003033BE1039B1B7A19460398FFF728
:1044F000DFF80246039B5B689B681A44039B1B69B9
:10450000D31A0693099A069B9A420FD901238DF874
:104510002F300398FFF764FC03468DF817309DF9A0
:104520001730002B02D09DF9173018E1029B9AB288
:10453000039BA3F8EC21039B019AC3F8F021019A95
:1045400000994FF6FF70FFF75BF803461A46039B8E
:10455000A3F8EE21039B1B6903F10801039B03F5FC
:10456000F273083308220398FFF7F2F803468DF838
:1045700016309DF91630002B02D09DF91630EEE072
:10458000039B1B6903F11001009B019A0398FFF73D
:10459000DFF803468DF815309DF91530002B02D059
:1045A0009DF91530DBE0039B6F4AC3F8E421039BC0
:1045B0006E4AC3F8E821039B1969039B03F5F27364
:1045C00008220398FFF7C4F803468DF814309DF9CC
:1045D0001430002B02D09DF91430C0E0029B5A1E0B
:1045E000039B033253F83230002B0FD0039B5A69E0
:1045F000029B013B03990333DB000B445B680F33E1
:10460000DB4323F001031A44039B5A61029B5A1EA9
:10461000039B1969039B033243F83210029B013B51
:10462000039A0333DB001344019A5A60039B1A690F
:104630000A9B1A44039B1A61039B5A690A9B1A44FA
:10464000039B5A619DF82F30002B01D0022386E096
:10465000002384E0039B1B78032B7ED1039BD3F8BC
:1046600020310F2B02D96FF0040378E00A9B0993E5
:10467000039BD3F81C21039BD3F81831D31A099A52
:104680009A4202D96FF0050369E0029B9AB2039B3C
:10469000A3F8EC21039B019AC3F8F021019A009939
:1046A0004FF6FF70FEF7ACFF03461A46039BA3F8D4
:1046B000EE21039BD3F8183103F10801039B03F5A6
:1046C000F273083308220398FFF742F803468DF887
:1046D00023309DF92330002B02D09DF923303EE09A
:1046E000039BD3F8183103F11001009B019A039842
:1046F000FFF72EF803468DF822309DF92230002B6B
:1047000002D09DF922302AE0039BD3F820211346E2
:104710005B0013449B0003F59073039A1344043326
:104720000793039BD3F81821079B1A60079B019AF4
:104730005A60079B029A9A60039BD3F820315A1C57
:10474000039BC3F82021039BD3F818210A9B1A442A
:10475000039BC3F81821002301E04FF0FF331846F4
:104760000DB05DF804FB00BFF045AE5F5FAE45F0F5
:1047700000B58BB00190009110230893019B1B782A
:10478000022B40F0958000238DF82730009B5A1EA5
:10479000019B033253F83230002B02D16FF0020339
:1047A000FCE0089B0793019B5B689A68019B5B692F
:1047B000D31A079A9A4202D96FF00803EEE0019BE0
:1047C0001B7A19460198FEF773FF0246019B5B684E
:1047D0009B681A44019B1B69D31A0493079A049B94
:1047E0009A420FD901238DF827300198FFF7F8FA84
:1047F00003468DF80F309DF90F30002B02D09DF944
:104800000F30CBE0019B674AC3F8E421019B664A65
:10481000C3F8E821009B9AB2019BA3F8EC21019B0D
:104820000022C3F8F021019B4FF6FF72A3F8EE219E
:10483000019B1969019B03F5F27310220198FEF7A1
:1048400087FF03468DF80E309DF90E30002B02D005
:104850009DF90E30A2E0019B5A69009B013B019932
:104860000333DB000B445B680F33DB4323F00103AE
:104870001A44019B5A61019B1B6903F11002019BC1
:104880001A61009B5A1E019B0332002143F832102B
:10489000009B013B019A0333DB00134400225A6062
:1048A0009DF82730002B01D0022377E0002375E02C
:1048B000019B1B78032B6FD1009B5A1E019B033277
:1048C00053F83230002B02D16FF0020366E0019BF7
:1048D000D3F820310F2B02D96FF004035EE0089B60
:1048E0000793019BD3F81C21019BD3F81831D31AED
:1048F000079A9A4202D96FF005034FE0009B9AB2E3
:10490000019BA3F8EC21019B0022C3F8F021019B3D
:104910004FF6FF72A3F8EE21019BD3F8183103F193
:104920000801019B03F5F273083308220198FEF792
:104930000FFF03468DF81B309DF91B30002B02D072
:104940009DF91B302AE0019BD3F8202113465B0020
:1049500013449B0003F59073019A134404330593A9
:10496000019BD3F81821059B1A60059B00225A6011
:10497000059B009A9A60019BD3F820315A1C019B39
:10498000C3F82021019BD3F81821089B1A44019BEE
:10499000C3F81821002301E04FF0FF3318460BB095
:1049A0005DF804FBF045AE5F5FAE45F0000000002F
:1049B00000B583B00190019B1B78022B02D04FF011
:1049C000FF3303E00198FFF70BFA0346184603B0E4
:1049D0005DF804FB00000000000000000000000083
:1049E00000B587B001900091019B1B78022B02D08B
:1049F0004FF0FF3349E0009B013B23F001030233FA
:104A00000593059B10330493019B5B689A68019B97
:104A10005B69D31A049A9A4202D96FF0030334E017
:104A2000019B1B7A19460198FEF742FE0246019B44
:104A30005B689B681A44019B1B69D31A0393049A11
:104A4000039B9A420CD90198FFF7CAF903468DF8E7
:104A50000B309DF90B30002B02D09DF90B3014E088
:104A6000019B03221A70019B1A69019BC3F818214C
:104A7000019B0022C3F82021019BD3F81821059B3C
:104A80001A44019BC3F81C210023184607B05DF8A7
:104A900004FB00BF00000000000000000000000058
:104AA00000B587B00190019B1B78032B02D04FF01B
:104AB000FF33A2E0019B534AC3F8E421019B524A11
:104AC000C3F8E821019BD3F8202113465B0013446F
:104AD0009B0003F59073019A13440433059315E08A
:104AE000059B0C3B0593059B1968019B03F5F2732D
:104AF00008220198FEF72CFE03468DF80F309DF931
:104B00000F30002B02D09DF90F3076E0019B03F5AA
:104B10009273059A9A42E3D8019BD3F81821019B1E
:104B20001A6157E0059B9B68013B0493059B5B68FA
:104B3000002B30D0019B049A033253F83230002B03
:104B40000ED0019B5A690199049B0333DB000B448F
:104B50005B680F33DB4323F001031A44019B5A6166
:104B6000019B5A69059B5B680F3323F001031344D3
:104B70009A1C019B5A61059B1968019B049A033298
:104B800043F83210059B5A680199049B0333DB00FC
:104B90000B445A601BE0019B5A690199049B033343
:104BA000DB000B445B680F33DB4323F001031A4443
:104BB000019B5A61019B049A0332002143F8321091
:104BC000019A049B0333DB00134400225A60059BC7
:104BD0000C330593019BD3F8202113465B0013444B
:104BE0009B0003F59073019A13440433059A9A428B
:104BF00098D3019B02221A700023184607B05DF873
:104C000004FB00BFF045AE5F5FAE45F00000000062
:104C100000B585B00190019B1B78032B02D04FF0AB
:104C2000FF3313E0019B02221A70019BD3F820315D
:104C3000002B06D00198FFF7D3F803468DF80F300C
:104C400002E000238DF80F309DF90F30184605B0B3
:104C50005DF804FB00000000000000000000000000
:104C600000B583B001900198FEF7AAF903B05DF892
:104C700004FB00BF00000000000000000000000076
:104C8000014B024A1A607047680A0020580A002047
:104C900000B583B00B4B01930BE00B4B1B681B68FB
:104CA000DA68094B1868019B591C01911B78194659
:104CB0009047064B1B68019A9A42EED303B05DF809
:104CC00004FB00BF580A00206C0A0020680A00207C
:104CD00000B583B00190FFF7D3FF0B4B00221A7091
:104CE000019B5B68002B02D0019B5B689847019B8E
:104CF000DB689847019B9B68002B02D0019B9B6857
:104D0000984703B05DF804FB510A00200000000042
:104D100000B583B0002301930BE00D4B1B681B68AB
:104D2000DB680B4A12682D2110469847019B01331E
:104D30000193019B4B2BF0D9054B1B681B685B68EB
:104D4000034A106802220349984703B05DF804FB48
:104D50006C0A0020D089000800000000000000005C
:104D600000B583B0002301930BE00D4B1B681B685B
:104D7000DB680B4A12683D2110469847019B0133BE
:104D80000193019B4B2BF0D9054B1B681B685B689B
:104D9000034A106802220349984703B05DF804FBF8
:104DA0006C0A0020D089000800000000000000000C
:104DB00082B00190064B01221A70064B01221A7034
:104DC000054A019B13600123184602B0704700BFDB
:104DD000510A0020500A0020540A00200000000060
:104DE00000B583B0034600918DF807309DF8073079
:104DF00083F00103DBB2002B04D00098FFF7D8FF4B
:104E0000034600E00023184603B05DF804FB00BF32
:104E100000B589B00190019B002B09D11D4B1B6887
:104E20001B68DB681B4A12683021104698472EE049
:104E300003AB079316E00199174BA3FB0123DA0894
:104E400013469B0013445B00CA1AD2B2079B591C3D
:104E500007913032D2B21A70019B0F4AA2FB032392
:104E6000DB080193019B002BE5D10CE0094B1B688B
:104E70001B68DB68074A1068079A013A0792079A8D
:104E800012781146984703AB079A9A42EED809B0B8
:104E90005DF804FB6C0A0020CDCCCCCC00000000F7
:104EA00000B583B001900BE0094B1B681B68DA6802
:104EB000074B1868019B591C01911B7819469047B4
:104EC000019B1B78002BEFD103B05DF804FB00BF02
:104ED0006C0A00200000000000000000000000003C
:104EE00000B583B001900198FFF7DAFF054B1B680E
:104EF0001B685B68034A106802220349984703B0A5
:104F00005DF804FB6C0A0020D08900080000000056
:104F100000B585B001900091884A019B13608848D4
:104F2000FFF7DEFF009B1B68002B08D08548FFF7CA
:104F3000B7FF009B1B681846FFF7D2FF02E08248CC
:104F4000FFF7CEFF8148FFF7CBFF8148FFF7A8FFAF
:104F50008048FFF7C5FF8048FFF7A2FF7F48FFF7B3
:104F6000BFFF7F48FFF79CFF7E48FFF7B9FF7748F8
:104F7000FFF7B6FF7C48FFF793FF7C4A7C4BD31AC0
:104F80001846FFF745FF7B48FFF7AAFF7A48FFF76F
:104F900087FF7A4A7A4BD31A1846FFF739FF7548CC
:104FA000FFF79EFF7748FFF77BFF774A774BD31ACF
:104FB0001846FFF72DFF6F48FFF792FF7448FFF781
:104FC0006FFF744A744BD31A1846FFF721FF6948E4
:104FD000FFF786FF5A48FFF783FF704B00221A70D5
:104FE0000023039388E0FFF7BBFE6D48FFF758FFEF
:104FF000039B01331846FFF70BFF6A48FFF750FF8A
:10500000009B5A68039B9B0013441B681B6818464F
:10501000FFF746FF6448FFF763FF002302935BE05E
:10502000FFF776FE6148FFF73BFF039B013318460D
:10503000FFF7EEFE5E48FFF733FF029B0133184691
:10504000FFF7E6FE5748FFF72BFF009B5A68039BCC
:105050009B0013441B685A68029B9B0013441B6807
:105060001B681846FFF71CFF4F48FFF739FF4FF446
:10507000FA60FFF7F5FD009B5A68039B9B00134401
:105080001B685A68029B9B0013441B681846FFF775
:105090001FFE484B1B78002B18D04748FFF700FF36
:1050A000464B1B681846FFF7B3FE4548FFF7F8FE6E
:1050B000FFF7EEFD4348FFF7F3FE434B1B6818462E
:1050C000FFF7EEFE4148FFF70BFF02E04048FFF715
:1050D00007FF029B01330293009B5A68039B9B00CE
:1050E00013441B685A68029B9B0013441B68002BE7
:1050F00096D1039B01330393009B5A68039B9B004B
:1051000013441B68002B7FF46EAFFFF701FE0C48C1
:10511000FFF7E6FE2F48FFF7C3FE204B1B78002B5E
:1051200003D02D48FFF7DCFE02E02C48FFF7D8FE45
:105130001A4B1B78184605B05DF804FB6C0A00207A
:10514000D8890008D4890008DC890008EC890008A7
:10515000F0890008048A00081C8A0008308A0008C8
:105160004C8A0008608A00088C8A0008A47900082C
:10517000A0010008A08A0008A88A0008C0940008BE
:10518000A4790008BC8A000800080020000800205C
:10519000D08A0008C00F002000080020500A00201C
:1051A000E48A0008F88A0008FC8A0008008B0008DE
:1051B000108B0008510A0020148B00084C0A0020B4
:1051C0002C8B0008308B0008540A0020348B000818
:1051D000388B00084C8B00085C8B0008448B00085F
:1051E00000B587B003468DF807309DF80730002BD7
:1051F00006D11E4BDB6805931C4B1B6904932BE007
:105200001A4B5B690593194B9B69049324E0174B78
:105210001B681B685B69154A126805991046984718
:1052200003468DF80F309DF80F30002B02D09DF80B
:105230000F3017E00D4B1B681846FBF731FE034695
:105240008DF80F309DF80F30002B02D09DF80F30F5
:1052500008E0059B01330593049B5A1E0492002B22
:10526000D5D10023184607B05DF804FB9C940008D4
:1052700000B587B003468DF807309DF80730002B46
:1052800006D1174BDB680593154B1B6904931CE093
:10529000134B5B690593124B9B69049315E0104B0C
:1052A0001B681B68DB690E4A12680599104698470F
:1052B00003468DF80F309DF80F30002B02D09DF87B
:1052C0000F3008E0059B01330593049B5A1E04929E
:1052D000002BE4D10023184607B05DF804FB00BFA3
:1052E0009C94000800000000000000000000000086
:1052F00008B50248FEF7F4FF08BD00BF700A0020A1
:1053000008B50248FFF70CF808BD00BF700A00207E
:1053100000B583B02E4B01221A600020FFF760FF1A
:1053200003468DF807309DF80730002B0CBF012392
:105330000023DBB227491846FFF752FD0346002B36
:1053400042D10120FFF74CFF03468DF807309DF84E
:105350000730002B0CBF01230023DBB21E49184687
:10536000FFF73EFD0346002B2ED1194B02221A6097
:105370001A491B48FEF7C4FF03468DF806309DF915
:105380000630002B0CBF01230023DBB21549184661
:10539000FFF726FD0346002B16D10D4B03221A60A2
:1053A0000E490F48FEF7ACFF03468DF805309DF916
:1053B0000530002B0CBF01230023DBB20A4918463D
:1053C000FFF70EFD0346002B03B05DF804FB00BFA2
:1053D0004C0A0020308E0008488E00089C9400087B
:1053E000700A0020608E0008888E0008000000000F
:1053F00008B502490248FEF783FF08BD9C940008E7
:10540000700A002000000000000000000000000002
:1054100008B50248FEF784FF08BD00BF700A0020EF
:1054200000B585B0144B01221A60012303931DE0DF
:105430004FF40073019301AA104B03991048FEF733
:10544000AFFF03468DF80B309DF90B3013F1030FBE
:105450000CBF01230023DBB20A491846FFF7C0FC4A
:105460000346002B05D1039B01330393039B202BA1
:10547000DED905B05DF804FB4C0A0020740C002056
:10548000700A0020C48E0008000000000000000028
:1054900008B502490248FEF733FF08BD9C94000896
:1054A000700A002000000000000000000000000062
:1054B00008B50248FEF734FF08BD00BF700A00209F
:1054C00000B583B07F4B01221A604FF40073009344
:1054D0006A467D4B01217D48FEF762FF03468DF849
:1054E00007309DF9073013F1030F0CBF0123002390
:1054F000DBB277491846FFF773FC0346002B40F0F8
:10550000DE80704B02221A60724B102201216F481C
:10551000FEF7C6FF03468DF806309DF90630002BD6
:105520000CBF01230023DBB26B491846FFF758FC80
:105530000346002B40F0C3804FF4007300936A468B
:10554000614B01216148FEF72BFF03468DF80630C1
:105550009DF90630002B0CBF01230023DBB25F490D
:105560001846FFF73DFC0346002B40F0A880009B47
:10557000102B0CBF01230023DBB259491846FFF75B
:105580002FFC0346002B40F09A80009B1A464E49A0
:10559000504802F0D7F90346002B0CBF012300232B
:1055A000DBB250491846FFF71BFC0346002B40F0C6
:1055B0008680444B03221A604B4B20220121434832
:1055C000FEF76EFF03468DF805309DF90530002B80
:1055D0000CBF01230023DBB244491846FFF700FC4F
:1055E0000346002B6BD14FF4007300936A46364B91
:1055F00001213648FEF7D4FE03468DF805309DF9AB
:105600000530002B0CBF01230023DBB233491846C1
:10561000FFF7E6FB0346002B51D1009B202B0CBF6C
:1056200001230023DBB22E491846FFF7D9FB0346BE
:10563000002B44D1009B1A4623492B4802F082F9E3
:105640000346002B0CBF01230023DBB2254918467B
:10565000FFF7C6FB0346002B31D11A4B04221A6018
:1056600001211A48FFF784F803468DF804309DF9AC
:105670000430002B0CBF01230023DBB21C49184669
:10568000FFF7AEFB0346002B19D14FF400730093D4
:105690006A460D4B01210D48FEF782FE03468DF848
:1056A00004309DF9043013F1030F0CBF01230023D4
:1056B000DBB210491846FFF793FB0346002B03B0FB
:1056C0005DF804FB4C0A0020740C0020700A0020D6
:1056D000FC8E0008F48B0008188F0008348F000837
:1056E000488F0008648F0008048C00087C8F000835
:1056F000988F0008B48F0008000000000000000030
:1057000008B50020FFF76CFD0120FFF769FD024995
:105710000248FEF7F5FD08BD9C940008700A0020C1
:1057200008B50248FEF7FCFD08BD00BF700A002066
:1057300000B585B0B94B01221A60B94B1022012186
:10574000B848FEF7ADFE03468DF80F309DF90F30D7
:10575000002B0CBF01230023DBB2B3491846FFF72F
:105760003FFB0346002B40F07E81B04B20220221FC
:10577000AC48FEF795FE03468DF80F309DF90F30CB
:10578000002B0CBF01230023DBB2A9491846FFF709
:1057900027FB0346002B40F06681A64B0A2203211B
:1057A000A048FEF77DFE03468DF80F309DF90F30BF
:1057B000002B0CBF01230023DBB29F491846FFF7E3
:1057C0000FFB0346002B40F04E81944B02221A60DF
:1057D0004FF4007300936A46984B01219148FEF7FD
:1057E000DFFD03468DF80E309DF90E30002B0CBF07
:1057F00001230023DBB292491846FFF7F1FA034672
:10580000002B00D02FE14FF4007300936A468B4BBE
:1058100002218448FEF7C4FD03468DF80E309DF941
:105820000E30002B0CBF01230023DBB28549184644
:10583000FFF7D6FA0346002B00D014E14FF40073B3
:1058400000936A467D4B03217648FEF7A9FD034687
:105850008DF80E309DF90E30002B0CBF0123002374
:10586000DBB279491846FFF7BBFA0346002B00D09C
:10587000F9E06A4B03221A6074496A48FEF740FD5A
:1058800003468DF80D309DF90D30002B0CBF012320
:105890000023DBB26E491846FFF7A2FA0346002B3D
:1058A00040F0B9804FF40073019301AA634B0121CA
:1058B0005C48FEF775FD03468DF80D309DF90D30FF
:1058C000002B0CBF01230023DBB25D491846FFF714
:1058D00087FA0346002B00D0C5E04FF40073019314
:1058E00001AA564B02214F48FEF75AFD03468DF898
:1058F0000D309DF90D30002B0CBF01230023DBB2CE
:1059000050491846FFF76CFA0346002B00D0AAE076
:105910004FF40073019301AA484B03214148FEF75D
:105920003FFD03468DF80D309DF90D30002B0CBF67
:1059300001230023DBB244491846FFF751FA03461E
:10594000002B00D08FE0354B04221A603548FEF75B
:10595000F7FC03468DF80C309DF90C30002B0CBF82
:1059600001230023DBB23B491846FFF739FA03460F
:10597000002B77D14FF40073029302AA2F4B012121
:105980002848FEF70DFD03468DF80C309DF90C30CC
:1059900013F1030F0CBF01230023DBB22E4918467D
:1059A000FFF71EFA0346002B5DD14FF400730293FC
:1059B00002AA224B02211B48FEF7F2FC03468DF897
:1059C0000C309DF90C3013F1030F0CBF01230023A1
:1059D000DBB222491846FFF703FA0346002B42D1F7
:1059E0004FF40073029302AA144B03210D48FEF7F3
:1059F000D7FC03468DF80C309DF90C3013F1030FE2
:105A00000CBF01230023DBB215491846FFF7E8F964
:105A10000346002B27E000BF25E000BF4C0A002012
:105A2000F48B0008700A0020D88F0008048C00084E
:105A3000F08F0008248C000808900008740C0020E7
:105A40002090000838900008509000089C940008AE
:105A500068900008789000088C900008A4900008D6
:105A6000BC90000800BF05B05DF804FB000000001A
:105A700008B504490448FEF743FC0348FEF760FC00
:105A800008BD00BF9C940008700A002000000000C0
:105A900008B50248FEF744FC08BD00BF700A0020AC
:105AA00000B589B0A34B01221A60A34B9B68203B31
:105AB000A24AA2FB0323DB0906930123079359E0C3
:105AC0009F4B4FF4007207999E48FEF7E9FC03468E
:105AD0008DF80A309DF90A30002B0CBF01230023FA
